:100000000C9458000C9480000C9480000C94800098
:100010000C9480000C9480000C9480000C94800060
:100020000C9480000C9480000C9480000C94800050
:100030000C9480000C9480000C9480000C94800040
:100040000C94ED010C9480000C9480000C948000C2
:100050000C9480000C9480000C9480000C94800020
:100060000C9437020C94800000000000250028004A
:100070002B00040404040404040402020202020229
:10008000030303030303010204081020408001025C
:1000900004081020010204081020000000080002DB
:1000A0000100000304070000000000000000E4035A
:1000B00011241FBECFEFD8E0DEBFCDBF11E0A0E01E
:1000C000B1E0EAEFF7E002C005900D92A032B1076F
:1000D000D9F721E0A0E2B1E001C01D92AF3CB20728
:1000E000E1F710E0C8E5D0E004C02197FE010E94CE
:1000F000F503C735D107C9F70E9456030C94FB03DB
:100100000C94000090E0FC01E656FF4F2491FC01A6
:10011000EA57FF4F3491FC01EE58FF4FE491EE2374
:10012000C9F0222339F0233001F1A8F4213019F16C
:10013000223029F1F0E0EE0FFF1FE859FF4FA591A3
:10014000B4918FB7F894EC91611126C030953E239D
:100150003C938FBF08952730A9F02830C9F0243090
:1001600049F7809180008F7D03C0809180008F7758
:1001700080938000DFCF84B58F7784BDDBCF84B5DB
:100180008F7DFBCF8091B0008F778093B000D2CF6E
:100190008091B0008F7DF9CF3E2BDACF3FB7F89436
:1001A0008091CB019091CC01A091CD01B091CE0175
:1001B00026B5A89B05C02F3F19F00196A11DB11DC2
:1001C0003FBFBA2FA92F982F8827BC01CD01620FFE
:1001D000711D811D911D42E0660F771F881F991FB9
:1001E0004A95D1F70895E091B801F091B90130979F
:1001F00029F01092B5011092B40109940895089560
:1002000020916601260F3327331F21323105ECF48C
:1002100020918A01FC0190E080E0243069F082E0C6
:100220000895A09166012191AC014A5B5E4FA40F35
:10023000B52FB11D2C930196861798F38091660116
:10024000680F6093660180E0089581E00895109240
:100250008A0181E080938C0110928B0161E082E140
:100260000E94820061E083E10E948200E9EBF0E0FD
:1002700080818E7F808380818D7F808388E48093DE
:10028000B80085E48093BC0008950895E091B7011B
:100290008091B601E81730F4F0E0E05EFE4F808117
:1002A00090E008958FEF9FEF08959091B7018091AE
:1002B000B6012FEF3FEF981748F4E92FF0E0E05E2A
:1002C000FE4F208130E09F5F9093B701C9010895F0
:1002D0008091B6019091B701891B990B0895CF9336
:1002E000DF93CB01EA01642F0E940001CE01DF9170
:1002F000CF910895CF93DF931F92CDB7DEB7698377
:1003000061E0CE0101960E94000181E090E00F9033
:10031000DF91CF91089590E080E008954CE050E0A7
:1003200062E171E08AEB91E00C946F01CF93DF936F
:1003300085ED8093BC008091420190914301A09192
:100340004401B09145010796A11DB11D23E0B6956A
:10035000A795979587952A95D1F72091BC0024FD04
:1003600003C010928A0136C040914201509143016E
:100370006091440170914501452B462B472B69F351
:100380000097A105B10541F025E32A95F1F700009A
:100390000197A109B109E1CF8091410191E09093CA
:1003A00040018823B9F0C091B800D091BA00809183
:1003B000BC008A7B8093BC0060E082E10E948200E6
:1003C00060E083E10E9482000E942701D093BA007E
:1003D000C093B800DF91CF9108951F920F920FB68E
:1003E0000F9211242F933F938F939F93AF93BF93BB
:1003F0008091C7019091C801A091C901B091CA0133
:100400003091C60123E0230F2D3758F50196A11D29
:10041000B11D2093C6018093C7019093C801A0939A
:10042000C901B093CA018091CB019091CC01A091F8
:10043000CD01B091CE010196A11DB11D8093CB01DC
:100440009093CC01A093CD01B093CE01BF91AF9119
:100450009F918F913F912F910F900FBE0F901F9002
:10046000189526E8230F0296A11DB11DD2CF1F9229
:100470000F920FB60F9211242F933F934F935F93D8
:100480006F937F938F939F93AF93BF93EF93FF935C
:100490008091B900887F803609F44AC0F0F588322F
:1004A00009F4A7C018F5803109F49BC0B8F488237B
:1004B00009F4F9C0883009F494C0FF91EF91BF911D
:1004C000AF919F918F917F916F915F914F913F91EC
:1004D0002F910F900FBE0F901F901895883109F43F
:1004E00088C0803251F78093890114C0803409F4A8
:1004F0009DC040F48033B9F38833F9F680938901C5
:1005000085ECB0C0803509F485C0883509F496C003
:10051000883499F60E949601D0CF883909F48CC0AE
:1005200038F5883729F050F4883611F0803729F6ED
:1005300083E080938A011092880157C0883809F4BB
:100540007BC0803919F0803809F0B7CF80918801DD
:10055000803208F071C0E091880181E08E0F8093B5
:1005600088018091BB00F0E0E859FE4F80833DC0D8
:10057000803B39F0E0F4803A09F479C0883A09F018
:100580009CCF84E080938A011092670110926601EB
:10059000E091B201F091B30109958091660181115A
:1005A0000FC081E0809366011092460109C0803C33
:1005B00009F4A6CF883C09F4A3CF883B09F07DCF8E
:1005C000E091670181E08E0F80936701F0E0EA5BC4
:1005D000FE4F80818093BB009091670180916601FE
:1005E00029C08091AF018093BB0085EC8093BC0053
:1005F00064CF9091AE018091AD01981758F5E091CC
:10060000AE0181E08E0F8093AE01F0E0E357FE4F24
:100610008081E9CFE091AE0181E08E0F8093AE0141
:100620008091BB00F0E0E357FE4F80839091AE01D4
:100630008091AD019817C8F285E8D8CFE091AE015E
:1006400081E08E0F8093AE018091BB00F0E0E35714
:10065000FE4F808380918C0181115CCF81E080937B
:100660008B0184EA8093BC0010928A0126CF85EC2E
:100670008093BC0010928A0180918801803230F40E
:10068000E0918801F0E0E859FE4F10826091880106
:1006900070E0E091B001F091B10188E691E0099538
:1006A000109288010ACF1092890134CF789484B5D2
:1006B000826084BD84B5816084BD85B5826085BD5E
:1006C00085B5816085BD80916E00816080936E00EC
:1006D00010928100809181008260809381008091DE
:1006E000810081608093810080918000816080938F
:1006F00080008091B10084608093B1008091B0004F
:1007000081608093B00080917A00846080937A0049
:1007100080917A00826080937A0080917A00816073
:1007200080937A0080917A00806880937A0010929A
:10073000C1001092B7011092B6011092B50110924B
:10074000B4010E94270183EF90E09093B30180935E
:10075000B2018FEF90E09093B1018093B00180E1FE
:100760008093BA008EE891E09093B9018093B8012C
:10077000C0E0D0E00E94CE004B015C0188EEC82EA4
:1007800083E0D82EE12CF12C0E94CE006819790963
:100790008A099B09683E734081059105A8F321E011
:1007A000C21AD108E108F10888EE880E83E0981E8D
:1007B000A11CB11CC114D104E104F10429F7209754
:1007C000C9F20E940000D6CFEAEBF1E01382128258
:1007D00088EE93E0A0E0B0E084839583A683B7839E
:1007E00084E091E0918380830895EE0FFF1F0590D0
:0A07F000F491E02D0994F894FFCF76
:1007FA00000000007A016F018B0145016801550173
:10080A0046014920616D2041726475696E6F00006E
:00000001FF
