:100000000C9458000C9480000C9480000C94800098
:100010000C9480000C9480000C9480000C94800060
:100020000C9480000C9480000C9480000C94800050
:100030000C9480000C9480000C9480000C94800040
:100040000C9433030C9480000C94A3030C947D0354
:100050000C9480000C9480000C9480000C94800020
:100060000C94D5030C9480000000000025002800AB
:100070002B00040404040404040402020202020229
:10008000030303030303010204081020408001025C
:1000900004081020010204081020000000080002DB
:1000A0000100000304070000000000000000F40449
:1000B00011241FBECFEFD8E0DEBFCDBF11E0A0E01E
:1000C000B1E0E2E6FFE002C005900D92A233B10775
:1000D000D9F722E0A2E3B1E001C01D92A238B20735
:1000E000E1F710E0C8E5D0E004C02197FE010E94CE
:1000F000CF05C735D107C9F70E942D050C94AF076E
:100100000C94000090E0FC01E656FF4F2491FC01A6
:10011000EA57FF4F3491FC01EE58FF4FE491EE2374
:10012000C9F0222339F0233001F1A8F4213019F16C
:10013000223029F1F0E0EE0FFF1FE859FF4FA591A3
:10014000B4918FB7F894EC91611126C030953E239D
:100150003C938FBF08952730A9F02830C9F0243090
:1001600049F7809180008F7D03C0809180008F7758
:1001700080938000DFCF84B58F7784BDDBCF84B5DB
:100180008F7DFBCF8091B0008F778093B000D2CF6E
:100190008091B0008F7DF9CF3E2BDACFE091CE0178
:1001A000F091CF01309729F01092CB011092CA0143
:1001B000099408950895AF92BF92CF92DF92EF9283
:1001C000FF920F931F93CF93DF936C017B018B0101
:1001D000040F151FEB015E01AE18BF08C017D10751
:1001E00059F06991D601ED91FC910190F081E02DDB
:1001F000C6010995892B79F7C501DF91CF911F9130
:100200000F91FF90EF90DF90CF90BF90AF90089547
:10021000FC01538D448D252F30E0842F90E0821B0C
:10022000930B541710F0CF96089501970895FC0191
:10023000918D828D981761F0A28DAE0FBF2FB11DE9
:100240005D968C91928D9F5F9F73928F90E0089541
:100250008FEF9FEF0895FC01918D828D981731F0FB
:10026000828DE80FF11D858D90E008958FEF9FEF4F
:100270000895FC01918D228D892F90E0805C9F4F25
:10028000821B91098F739927089589ED91E00E944F
:10029000390121E0892B09F420E0822F089580E0C4
:1002A00090E0892B29F00E94450181110C940000F7
:1002B0000895FC01A48DA80FB92FB11DA35ABF4FFB
:1002C0002C91848D90E001968F739927848FA68955
:1002D000B7892C93A089B1898C91837080648C93A9
:1002E000938D848D981306C00288F389E02D808158
:1002F0008F7D80830895EF92FF920F931F93CF938A
:10030000DF93EC0181E0888F9B8D8C8D98131AC050
:10031000E889F989808185FF15C09FB7F894EE8937
:10032000FF896083E889F989808183708064808394
:100330009FBF81E090E0DF91CF911F910F91FF90DF
:10034000EF900895F62E0B8D10E00F5F1F4F0F7387
:100350001127E02E8C8D8E110CC00FB607FCFACF42
:10036000E889F989808185FFF5CFCE010E94590186
:10037000F1CFEB8DEC0FFD2FF11DE35AFF4FF08213
:100380009FB7F8940B8FEA89FB8980818062CFCF79
:10039000CF93DF93EC01888D8823B9F0AA89BB89BC
:1003A000E889F9898C9185FD03C0808186FD0DC0A7
:1003B0000FB607FCF7CF8C9185FFF2CF808185FFC8
:1003C000EDCFCE010E945901E9CFDF91CF91089581
:1003D00020917C01260F3327331F21323105ECF4A5
:1003E0002091A001FC0190E080E0243069F082E0DF
:1003F0000895A0917C012191AC01445A5E4FA40F55
:10040000B52FB11D2C930196861798F380917C012E
:10041000680F60937C0180E0089581E00895109258
:10042000A00181E08093A2011092A10161E082E12C
:100430000E94820061E083E10E948200E9EBF0E02B
:1004400080818E7F808380818D7F808388E480930C
:10045000B80085E48093BC0008950895E091CD0133
:100460008091CC01E81730F4F0E0EA5CFE4F808127
:1004700090E008958FEF9FEF08959091CD018091C6
:10048000CC012FEF3FEF981748F4E92FF0E0EA5C3A
:10049000FE4F208130E09F5F9093CD01C901089508
:1004A0008091CC019091CD01891B990B0895CF9338
:1004B000DF93CB01EA01642F0E94E801CE01DF91B6
:1004C000CF910895CF93DF931F92CDB7DEB76983A5
:1004D00061E0CE0101960E94E80181E090E00F907A
:1004E000DF91CF91089590E080E00895CF93DF935E
:1004F00085ED8093BC008091580190915901A091A5
:100500005A01B0915B010796A11DB11D23E0B6957C
:10051000A795979587952A95D1F72091BC0024FD42
:1005200003C01092A00136C040915801509159016A
:1005300060915A0170915B01452B462B472B69F363
:100540000097A105B10541F025E32A95F1F70000D8
:100550000197A109B109E1CF8091570191E09093F2
:1005600056018823B9F0C091B800D091BA008091AB
:10057000BC008A7B8093BC0060E082E10E94820024
:1005800060E083E10E9482000E940F02D093BA00D3
:10059000C093B800DF91CF9108958F929F92AF9250
:1005A000BF92CF92DF92EF92FF9280E480937C0023
:1005B00080917A00806480937A0080917A0086FD31
:1005C000FCCF8091780060917900762F682F072EFC
:1005D000000C880B990B0E94B6062AE038E240EA2C
:1005E0005BE30E9442076B017C0120E030E04AE7B8
:1005F00054E40E9442074B015C01A701960160E0B0
:1006000070E080EA90E40E94D5059B01AC01C50131
:10061000B4010E94420660933201709333018093CB
:1006200034019093350144E050E062E371E086E7E5
:1006300092E00E94570249E050E064E271E089EDE7
:1006400091E00E94DB0042E050E06EE271E089ED53
:1006500091E0FF90EF90DF90CF90BF90AF909F9090
:100660008F900C94DB001F920F920FB60F92112403
:100670002F933F938F939F93AF93BF938091D50117
:100680009091D601A091D701B091D8013091D401B9
:1006900023E0230F2D3758F50196A11DB11D20939E
:1006A000D4018093D5019093D601A093D701B09344
:1006B000D8018091D0019091D101A091D201B09147
:1006C000D3010196A11DB11D8093D0019093D1015A
:1006D000A093D201B093D301BF91AF919F918F911D
:1006E0003F912F910F900FBE0F901F90189526E805
:1006F000230F0296A11DB11DD2CF1F920F920FB6EC
:100700000F9211242F933F934F935F936F937F9397
:100710008F939F93AF93BF93EF93FF9389ED91E0F6
:100720000E945901FF91EF91BF91AF919F918F91DD
:100730007F916F915F914F913F912F910F900FBEDD
:100740000F901F9018951F920F920FB60F921124C1
:100750002F938F939F93EF93FF93E091E901F09193
:10076000EA018081E091EF01F091F00182FD1BC070
:1007700090818091F2018F5F8F732091F301821736
:1007800041F0E091F201F0E0E752FE4F958F809347
:10079000F201FF91EF919F918F912F910F900FBEDA
:1007A0000F901F9018958081F4CF1F920F920FB673
:1007B0000F9211242F933F934F935F936F937F93E7
:1007C0008F939F93AF93BF93EF93FF938091B90063
:1007D000887F803609F44AC0F0F5883209F4A7C052
:1007E00018F5803109F49BC0B8F4882309F4F9C0E6
:1007F000883009F494C0FF91EF91BF91AF919F9120
:100800008F917F916F915F914F913F912F910F90B9
:100810000FBE0F901F901895883109F488C0803260
:1008200051F780939F0114C0803409F49DC040F4B7
:100830008033B9F38833F9F680939F0185ECB0C01B
:10084000803509F485C0883509F496C0883499F656
:100850000E947602D0CF883909F48CC038F58837E9
:1008600029F050F4883611F0803729F683E0809320
:10087000A00110929E0157C0883809F47BC08039CE
:1008800019F0803809F0B7CF80919E01803208F0CE
:1008900071C0E0919E0181E08E0F80939E01809156
:1008A000BB00F0E0E258FE4F80833DC0803B39F052
:1008B000E0F4803A09F479C0883A09F09CCF84E0EA
:1008C0008093A00110927D0110927C01E091C801FB
:1008D000F091C901099580917C0181110FC081E0DF
:1008E00080937C0110925C0109C0803C09F4A6CF82
:1008F000883C09F4A3CF883B09F07DCFE0917D01CE
:1009000081E08E0F80937D01F0E0E45AFE4F8081FC
:100910008093BB0090917D0180917C0129C08091E2
:10092000C5018093BB0085EC8093BC0064CF90919F
:10093000C4018091C301981758F5E091C40181E08A
:100940008E0F8093C401F0E0ED55FE4F8081E9CF1A
:10095000E091C40181E08E0F8093C4018091BB00BF
:10096000F0E0ED55FE4F80839091C4018091C3016A
:100970009817C8F285E8D8CFE091C40181E08E0FC6
:100980008093C4018091BB00F0E0ED55FE4F808361
:100990008091A20181115CCF81E08093A10184EA62
:1009A0008093BC001092A00126CF85EC8093BC0000
:1009B0001092A00180919E01803230F4E0919E015E
:1009C000F0E0E258FE4F108260919E0170E0E091ED
:1009D000C601F091C7018EE791E0099510929E0142
:1009E0000ACF10929F0134CFE9EDF1E01382128219
:1009F00088EE93E0A0E0B0E084839583A683B7837C
:100A000024E031E03183208325EC30E035872487F2
:100A100024EC30E03787268720EC30E0318B208BC8
:100A200021EC30E0338B228B22EC30E0358B248BB1
:100A300026EC30E0378B268B118E128E138E148E9F
:100A4000E6E7F2E01382128284839583A683B7835C
:100A500086E191E0918380830895789484B58260E3
:100A600084BD84B5816084BD85B5826085BD85B552
:100A7000816085BD80916E00816080936E001092D0
:100A8000810080918100826080938100809181004B
:100A900081608093810080918000816080938000DC
:100AA0008091B10084608093B1008091B00081603A
:100AB0008093B00080917A00846080937A00809166
:100AC0007A00826080937A0080917A0081608093BE
:100AD0007A0080917A00806880937A001092C10039
:100AE0001092CD011092CC011092CB011092CA014C
:100AF0000E940F028EEC90E09093C9018093C80190
:100B00008AED90E09093C7018093C60180E18093C5
:100B1000BA008DEC92E09093CF018093CE01E091EA
:100B2000E901F091EA0182E08083E091E501F09132
:100B3000E6011082E091E701F091E8018FEC8083FB
:100B40001092F101E091ED01F091EE0186E08083D9
:100B5000E091EB01F091EC01808180618083E09174
:100B6000EB01F091EC01808188608083E091EB01E2
:100B7000F091EC01808180688083E091EB01F0913D
:100B8000EC0180818F7D8083C0E0D0E02097F1F37D
:100B90000E9445018823D1F30E940000F7CFEE0F99
:100BA000FF1F0590F491E02D09945058BB27AA2708
:100BB0000E94ED050C9408070E94FA0638F00E9486
:100BC000010720F039F49F3F19F426F40C94F7063E
:100BD0000EF4E095E7FB0C94F106E92F0E9419074B
:100BE00058F3BA17620773078407950720F079F462
:100BF000A6F50C943B070EF4E0950B2EBA2FA02D12
:100C00000B01B90190010C01CA01A0011124FF27B9
:100C1000591B99F0593F50F4503E68F11A16F040B4
:100C2000A22F232F342F4427585FF3CF46953795B3
:100C30002795A795F0405395C9F77EF41F16BA0B78
:100C4000620B730B840BBAF09150A1F0FF0FBB1F26
:100C5000661F771F881FC2F70EC0BA0F621F731F6F
:100C6000841F48F4879577956795B795F7959E3FCC
:100C700008F0B0CF9395880F08F09927EE0F97955D
:100C8000879508950E9456060C9408070E94010754
:100C900058F00E94FA0640F029F45F3F29F00C94C6
:100CA000F10651110C943C070C94F7060E941907A9
:100CB00068F39923B1F3552391F3951B550BBB278B
:100CC000AA2762177307840738F09F5F5F4F220FD0
:100CD000331F441FAA1FA9F335D00E2E3AF0E0E8C7
:100CE00032D091505040E695001CCAF72BD0FE2F11
:100CF00029D0660F771F881FBB1F261737074807A5
:100D0000AB07B0E809F0BB0B802DBF01FF2793585C
:100D10005F4F3AF09E3F510578F00C94F1060C9429
:100D20003C075F3FE4F3983ED4F38695779567954B
:100D3000B795F7959F5FC9F7880F911D9695879591
:100D400097F90895E1E0660F771F881FBB1F6217B0
:100D500073078407BA0720F0621B730B840BBA0B6E
:100D6000EE1F88F7E0950895E89409C097FB3EF4DC
:100D700090958095709561957F4F8F4F9F4F9923E8
:100D8000A9F0F92F96E9BB279395F6958795779566
:100D90006795B795F111F8CFFAF4BB0F11F460FF26
:100DA0001BC06F5F7F4F8F4F9F4F16C0882311F07E
:100DB00096E911C0772321F09EE8872F762F05C092
:100DC000662371F096E8862F70E060E02AF09A952D
:100DD000660F771F881FDAF7880F9695879597F922
:100DE000089597F99F6780E870E060E008959FEFAD
:100DF00080EC089500240A941616170618060906B2
:100E0000089500240A941216130614060506089580
:100E1000092E0394000C11F4882352F0BB0F40F408
:100E2000BF2B11F460FF04C06F5F7F4F8F4F9F4F48
:100E3000089557FD9058440F551F59F05F3F71F0CA
:100E40004795880F97FB991F61F09F3F79F0879531
:100E50000895121613061406551FF2CF4695F1DFBA
:100E600008C0161617061806991FF1CF869571054A
:100E7000610508940895E894BB2766277727CB017E
:100E800097F908950E9455070C9408070E94FA06E6
:100E900038F00E94010720F0952311F00C94F10620
:100EA0000C94F70611240C943C070E94190770F368
:100EB000959FC1F3950F50E0551F629FF001729FFF
:100EC000BB27F00DB11D639FAA27F00DB11DAA1F0E
:100ED000649F6627B00DA11D661F829F2227B00D5B
:100EE000A11D621F739FB00DA11D621F839FA00DE6
:100EF000611D221F749F3327A00D611D231F849F36
:100F0000600D211D822F762F6A2F11249F5750408C
:100F10009AF0F1F088234AF0EE0FFF1FBB1F661F07
:100F2000771F881F91505040A9F79E3F510580F0D0
:100F30000C94F1060C943C075F3FE4F3983ED4F325
:100F4000869577956795B795F795E7959F5FC1F774
:100F5000FE2B880F911D9695879597F90895F89423
:020F6000FFCFC1
:100F6200000000007B01DB000801C8013901170104
:100F72002B01000000006202570273022D02500290
:100F82003D022E02446174612073656E74000D0A85
:020F920000005D
:00000001FF
